{
	"tests/PKCoin.sol": {
		"PKCoin": {
			"abi": [
				{
					"inputs": [],
					"stateMutability": "nonpayable",
					"type": "constructor"
				},
				{
					"inputs": [
						{
							"internalType": "int256",
							"name": "money",
							"type": "int256"
						}
					],
					"name": "depositBalance",
					"outputs": [],
					"stateMutability": "nonpayable",
					"type": "function"
				},
				{
					"inputs": [],
					"name": "getBalance",
					"outputs": [
						{
							"internalType": "int256",
							"name": "",
							"type": "int256"
						}
					],
					"stateMutability": "view",
					"type": "function"
				},
				{
					"inputs": [
						{
							"internalType": "int256",
							"name": "_balance",
							"type": "int256"
						}
					],
					"name": "setBalance",
					"outputs": [],
					"stateMutability": "nonpayable",
					"type": "function"
				},
				{
					"inputs": [
						{
							"internalType": "int256",
							"name": "money",
							"type": "int256"
						}
					],
					"name": "withdrawBalance",
					"outputs": [],
					"stateMutability": "nonpayable",
					"type": "function"
				}
			],
			"devdoc": {
				"kind": "dev",
				"methods": {},
				"version": 1
			},
			"evm": {
				"assembly": "    /* \"tests/PKCoin.sol\":56:487  contract PKCoin{... */\n  mstore(0x40, 0x80)\n    /* \"tests/PKCoin.sol\":103:143  constructor(){... */\n  callvalue\n  dup1\n  iszero\n  tag_1\n  jumpi\n  0x00\n  dup1\n  revert\ntag_1:\n  pop\n    /* \"tests/PKCoin.sol\":135:136  0 */\n  0x00\n    /* \"tests/PKCoin.sol\":126:133  balance */\n  dup1\n    /* \"tests/PKCoin.sol\":126:136  balance =0 */\n  dup2\n  swap1\n  sstore\n  pop\n    /* \"tests/PKCoin.sol\":56:487  contract PKCoin{... */\n  dataSize(sub_0)\n  dup1\n  dataOffset(sub_0)\n  0x00\n  codecopy\n  0x00\n  return\nstop\n\nsub_0: assembly {\n        /* \"tests/PKCoin.sol\":56:487  contract PKCoin{... */\n      mstore(0x40, 0x80)\n      callvalue\n      dup1\n      iszero\n      tag_1\n      jumpi\n      0x00\n      dup1\n      revert\n    tag_1:\n      pop\n      jumpi(tag_2, lt(calldatasize, 0x04))\n      shr(0xe0, calldataload(0x00))\n      dup1\n      0x12065fe0\n      eq\n      tag_3\n      jumpi\n      dup1\n      0x7c52caa3\n      eq\n      tag_4\n      jumpi\n      dup1\n      0xd83b066e\n      eq\n      tag_5\n      jumpi\n      dup1\n      0xe51ed0a0\n      eq\n      tag_6\n      jumpi\n    tag_2:\n      0x00\n      dup1\n      revert\n        /* \"tests/PKCoin.sol\":149:227  function getBalance() public view returns (int){... */\n    tag_3:\n      tag_7\n      tag_8\n      jump\t// in\n    tag_7:\n      mload(0x40)\n      dup1\n      dup3\n      dup2\n      mstore\n      0x20\n      add\n      swap2\n      pop\n      pop\n      mload(0x40)\n      dup1\n      swap2\n      sub\n      swap1\n      return\n        /* \"tests/PKCoin.sol\":400:485  function withdrawBalance(int money) public {... */\n    tag_4:\n      tag_9\n      0x04\n      dup1\n      calldatasize\n      sub\n      0x20\n      dup2\n      lt\n      iszero\n      tag_10\n      jumpi\n      0x00\n      dup1\n      revert\n    tag_10:\n      dup2\n      add\n      swap1\n      dup1\n      dup1\n      calldataload\n      swap1\n      0x20\n      add\n      swap1\n      swap3\n      swap2\n      swap1\n      pop\n      pop\n      pop\n      tag_11\n      jump\t// in\n    tag_9:\n      stop\n        /* \"tests/PKCoin.sol\":233:309  function setBalance(int _balance) public {... */\n    tag_5:\n      tag_12\n      0x04\n      dup1\n      calldatasize\n      sub\n      0x20\n      dup2\n      lt\n      iszero\n      tag_13\n      jumpi\n      0x00\n      dup1\n      revert\n    tag_13:\n      dup2\n      add\n      swap1\n      dup1\n      dup1\n      calldataload\n      swap1\n      0x20\n      add\n      swap1\n      swap3\n      swap2\n      swap1\n      pop\n      pop\n      pop\n      tag_14\n      jump\t// in\n    tag_12:\n      stop\n        /* \"tests/PKCoin.sol\":319:394  function depositBalance(int money) public {... */\n    tag_6:\n      tag_15\n      0x04\n      dup1\n      calldatasize\n      sub\n      0x20\n      dup2\n      lt\n      iszero\n      tag_16\n      jumpi\n      0x00\n      dup1\n      revert\n    tag_16:\n      dup2\n      add\n      swap1\n      dup1\n      dup1\n      calldataload\n      swap1\n      0x20\n      add\n      swap1\n      swap3\n      swap2\n      swap1\n      pop\n      pop\n      pop\n      tag_17\n      jump\t// in\n    tag_15:\n      stop\n        /* \"tests/PKCoin.sol\":149:227  function getBalance() public view returns (int){... */\n    tag_8:\n        /* \"tests/PKCoin.sol\":192:195  int */\n      0x00\n        /* \"tests/PKCoin.sol\":213:220  balance */\n      dup1\n      sload\n        /* \"tests/PKCoin.sol\":206:220  return balance */\n      swap1\n      pop\n        /* \"tests/PKCoin.sol\":149:227  function getBalance() public view returns (int){... */\n      swap1\n      jump\t// out\n        /* \"tests/PKCoin.sol\":400:485  function withdrawBalance(int money) public {... */\n    tag_11:\n        /* \"tests/PKCoin.sol\":473:478  money */\n      dup1\n        /* \"tests/PKCoin.sol\":462:469  balance */\n      0x00\n      dup1\n        /* \"tests/PKCoin.sol\":462:478  balance -= money */\n      dup3\n      dup3\n      sload\n      sub\n      swap3\n      pop\n      pop\n      dup2\n      swap1\n      sstore\n      pop\n        /* \"tests/PKCoin.sol\":400:485  function withdrawBalance(int money) public {... */\n      pop\n      jump\t// out\n        /* \"tests/PKCoin.sol\":233:309  function setBalance(int _balance) public {... */\n    tag_14:\n        /* \"tests/PKCoin.sol\":294:302  _balance */\n      dup1\n        /* \"tests/PKCoin.sol\":284:291  balance */\n      0x00\n        /* \"tests/PKCoin.sol\":284:302  balance = _balance */\n      dup2\n      swap1\n      sstore\n      pop\n        /* \"tests/PKCoin.sol\":233:309  function setBalance(int _balance) public {... */\n      pop\n      jump\t// out\n        /* \"tests/PKCoin.sol\":319:394  function depositBalance(int money) public {... */\n    tag_17:\n        /* \"tests/PKCoin.sol\":382:387  money */\n      dup1\n        /* \"tests/PKCoin.sol\":371:378  balance */\n      0x00\n      dup1\n        /* \"tests/PKCoin.sol\":371:387  balance += money */\n      dup3\n      dup3\n      sload\n      add\n      swap3\n      pop\n      pop\n      dup2\n      swap1\n      sstore\n      pop\n        /* \"tests/PKCoin.sol\":319:394  function depositBalance(int money) public {... */\n      pop\n      jump\t// out\n\n    auxdata: 0xa26469706673582212201823192b38853e8616ca6bfe5090e3e9a064cfe5f5e828b0a657ae7a68d998d664736f6c63430007040033\n}\n",
				"bytecode": {
					"linkReferences": {},
					"object": "608060405234801561001057600080fd5b5060008081905550610166806100276000396000f3fe608060405234801561001057600080fd5b506004361061004c5760003560e01c806312065fe0146100515780637c52caa31461006f578063d83b066e1461009d578063e51ed0a0146100cb575b600080fd5b6100596100f9565b6040518082815260200191505060405180910390f35b61009b6004803603602081101561008557600080fd5b8101908080359060200190929190505050610102565b005b6100c9600480360360208110156100b357600080fd5b8101908080359060200190929190505050610114565b005b6100f7600480360360208110156100e157600080fd5b810190808035906020019092919050505061011e565b005b60008054905090565b80600080828254039250508190555050565b8060008190555050565b8060008082825401925050819055505056fea26469706673582212201823192b38853e8616ca6bfe5090e3e9a064cfe5f5e828b0a657ae7a68d998d664736f6c63430007040033",
					"opcodes": "PUSH1 0x80 PUSH1 0x40 MSTORE CALLVALUE DUP1 ISZERO PUSH2 0x10 JUMPI PUSH1 0x0 DUP1 REVERT JUMPDEST POP PUSH1 0x0 DUP1 DUP2 SWAP1 SSTORE POP PUSH2 0x166 DUP1 PUSH2 0x27 PUSH1 0x0 CODECOPY PUSH1 0x0 RETURN INVALID PUSH1 0x80 PUSH1 0x40 MSTORE CALLVALUE DUP1 ISZERO PUSH2 0x10 JUMPI PUSH1 0x0 DUP1 REVERT JUMPDEST POP PUSH1 0x4 CALLDATASIZE LT PUSH2 0x4C JUMPI PUSH1 0x0 CALLDATALOAD PUSH1 0xE0 SHR DUP1 PUSH4 0x12065FE0 EQ PUSH2 0x51 JUMPI DUP1 PUSH4 0x7C52CAA3 EQ PUSH2 0x6F JUMPI DUP1 PUSH4 0xD83B066E EQ PUSH2 0x9D JUMPI DUP1 PUSH4 0xE51ED0A0 EQ PUSH2 0xCB JUMPI JUMPDEST PUSH1 0x0 DUP1 REVERT JUMPDEST PUSH2 0x59 PUSH2 0xF9 JUMP JUMPDEST PUSH1 0x40 MLOAD DUP1 DUP3 DUP2 MSTORE PUSH1 0x20 ADD SWAP2 POP POP PUSH1 0x40 MLOAD DUP1 SWAP2 SUB SWAP1 RETURN JUMPDEST PUSH2 0x9B PUSH1 0x4 DUP1 CALLDATASIZE SUB PUSH1 0x20 DUP2 LT ISZERO PUSH2 0x85 JUMPI PUSH1 0x0 DUP1 REVERT JUMPDEST DUP2 ADD SWAP1 DUP1 DUP1 CALLDATALOAD SWAP1 PUSH1 0x20 ADD SWAP1 SWAP3 SWAP2 SWAP1 POP POP POP PUSH2 0x102 JUMP JUMPDEST STOP JUMPDEST PUSH2 0xC9 PUSH1 0x4 DUP1 CALLDATASIZE SUB PUSH1 0x20 DUP2 LT ISZERO PUSH2 0xB3 JUMPI PUSH1 0x0 DUP1 REVERT JUMPDEST DUP2 ADD SWAP1 DUP1 DUP1 CALLDATALOAD SWAP1 PUSH1 0x20 ADD SWAP1 SWAP3 SWAP2 SWAP1 POP POP POP PUSH2 0x114 JUMP JUMPDEST STOP JUMPDEST PUSH2 0xF7 PUSH1 0x4 DUP1 CALLDATASIZE SUB PUSH1 0x20 DUP2 LT ISZERO PUSH2 0xE1 JUMPI PUSH1 0x0 DUP1 REVERT JUMPDEST DUP2 ADD SWAP1 DUP1 DUP1 CALLDATALOAD SWAP1 PUSH1 0x20 ADD SWAP1 SWAP3 SWAP2 SWAP1 POP POP POP PUSH2 0x11E JUMP JUMPDEST STOP JUMPDEST PUSH1 0x0 DUP1 SLOAD SWAP1 POP SWAP1 JUMP JUMPDEST DUP1 PUSH1 0x0 DUP1 DUP3 DUP3 SLOAD SUB SWAP3 POP POP DUP2 SWAP1 SSTORE POP POP JUMP JUMPDEST DUP1 PUSH1 0x0 DUP2 SWAP1 SSTORE POP POP JUMP JUMPDEST DUP1 PUSH1 0x0 DUP1 DUP3 DUP3 SLOAD ADD SWAP3 POP POP DUP2 SWAP1 SSTORE POP POP JUMP INVALID LOG2 PUSH5 0x6970667358 0x22 SLT KECCAK256 XOR 0x23 NOT 0x2B CODESIZE DUP6 RETURNDATACOPY DUP7 AND 0xCA PUSH12 0xFE5090E3E9A064CFE5F5E828 0xB0 0xA6 JUMPI 0xAE PUSH27 0x68D998D664736F6C63430007040033000000000000000000000000 "
				},
				"gasEstimates": {
					"creation": {
						"codeDepositCost": "71600",
						"executionCost": "5137",
						"totalCost": "76737"
					},
					"external": {
						"depositBalance(int256)": "21105",
						"getBalance()": "991",
						"setBalance(int256)": "20264",
						"withdrawBalance(int256)": "21061"
					}
				},
				"methodIdentifiers": {
					"depositBalance(int256)": "e51ed0a0",
					"getBalance()": "12065fe0",
					"setBalance(int256)": "d83b066e",
					"withdrawBalance(int256)": "7c52caa3"
				}
			},
			"storageLayout": {
				"storage": [
					{
						"astId": 3,
						"contract": "tests/PKCoin.sol:PKCoin",
						"label": "balance",
						"offset": 0,
						"slot": "0",
						"type": "t_int256"
					}
				],
				"types": {
					"t_int256": {
						"encoding": "inplace",
						"label": "int256",
						"numberOfBytes": "32"
					}
				}
			},
			"userdoc": {
				"kind": "user",
				"methods": {},
				"version": 1
			}
		}
	}
}